:0E0DD8002530386C75000206040C0818101245
:030DE600011E00EB
:100DA800E589540F4410F589751CDA751D80851C7A
:0B0DB8008D851D8BD28ED2ABD2BB22EA
:100CD300E4F522D209751B10751A27F519F51812B8
:100CE3000DA8120DC37530FF75310D7532D8851BF4
:100CF30036851A358519348518337B007A007923B4
:100D030012085CE4F522C3E52294087480948050B1
:100D1300D474232522F8E6900DC193FF7444252251
:070D2300F8A607052280DF9E
:03001B00020C765E
:0B0C7600C0E0C083C082C0D075D01069
:100C8100751CDA751D80851C8D851D8BAF805317F2
:100C9100E1E51E900DDE9342178F80AF1BAE1AADBA
:100CA10019AC18EC4D4E4F6020300904051E80022E
:100CB100151E531E07EF24FFF51BEE34FFF51AED49
:090CC10034FFF519EC34FFF518BD
:090CCA00D0D0D082D083D0E032FA
:0A0DF1003F065B4F666D7D077F6FC4
:070DE900014100024200007D
:100DC300E58954F04401F589758CF8758A80D28CD5
:050DD300D2A9D2AF22FD
:03000B00020D2AB9
:100D2A00C0E0C0D075D008758CF8758A80759000BF
:100D3A00D2A3C2A3AF41A80F7401088002C333D85B
:100D4A00FCF4F590D2A2C2A274442541F8E6F590CB
:100D5A00D2A3C2A30541E54164087002F5410543E7
:100D6A00E5437002054264F045427006D20AF54234
:070D7A00F543D0D0D0E032B8
:03000000020BEA06
:0C0BEA00787FE4F6D8FD75814B020C31D9
:10080000E53C2430F8E6053C22782D3007027830AC
:10081000E475F001120BB4020B5C2000EB7F2ED2CA
:10082000008018EF540F2490D43440D4FF30040BD0
:10083000EF24BFB41A0050032461FFE53D600215A8
:100840003D0540E5407002053F30070D782DE47509
:10085000F001120BB4EF020BA2020D817403D20758
:100860008003E4C207F53C8B2D8A2E892FE4F53DE9
:10087000F53FF540E53D60077F2012083B80F575A8
:100880003EFFC201C200C202C203C205C206C208C4
:10089000120809FF700D3007057F0012084CAF40A9
:1008A000AE3F22B4255FC2D5C204120809FF24D08E
:1008B000B40A00501A75F00A783D30D50508B6FF25
:1008C0000106C6A426F620D5047002D20380D924DE
:1008D000CFB41A00EF5004C2E5D204020A4CD20190
:1008E00080C6D20080C0D20280BCD2D580BAD205E8
:1008F00080B47F2012083B2002077401B53D004000
:10090000F1120800FF12083B020874D208D20680D8
:1009100095120800FB120800FA120800F94A4B7001
:1009200006791D7A0B7BFF20022EE53D602A7E00B2
:100930008E82758300120B7560060EEE653E70F0B8
:10094000C2D5EBC0E0EAC0E0E9C0E0EE120A93D005
:10095000E0F9D0E0FAD0E0FB120B5CFF60AAEBC03C
:10096000E0EAC0E0E9C0E012083BD0E02401F9D0A1
:10097000E03400FAD0E0FBE53E0460DCD53ED980EF
:10098000877BFF7A0A798FD202809C791080027966
:1009900008C206C2088008D2D5790A8004790AC242
:1009A000D5E53E047002F53EE4FAFDFEFF120800B4
:1009B000FC7B08200113120800FD7B1030000A1296
:1009C0000800FE120800FF7B20EC3382D592D55040
:1009D00013C3E43000069FFFE49EFEE42001039D64
:1009E000FDE49CFCE4CBF8C201EC700CCFCECDCC86
:1009F000E824F8F870F38017C3EF33FFEE33FEED11
:100A000033FDEC33FCEB33FB994002FB0FD8E9EBF1
:100A1000300105F8D0E0C448B201C0E00AEC4D4E08
:100A20004F78207B0070C2EAB53E0040BCC0E012A7
:100A30000A95D0F0D0E0200104C4C0E0C4B201C0E7
:100A4000F0120824D0F0D5F0EB020874120BC409A0
:100A50001153098B5808E24C08DE42098F4F099761
:0F0A60004409974908F743099D550981460981C3
:100A6F00450981470B3D5008E62D08EA2E090D2B4D
:100A7F0008EE23090B200B262A08A64800000905BB
:100A8F003F3F3F00790AA2D5200314300509B91062
:100A9F00020404B9080104A2D52006025001042063
:100AAF0002689202B53D005034C0E07F2030031938
:100ABF007F30A20272067205500F120AECC202C2F8
:100ACF0006C205C2087F30800F300503E9C0E0126F
:100ADF00083B300503D0E0F9D0E0B53DCC30051729
:100AEF007F30B9100C12083B7F583004077F788095
:100AFF0003B9080312083B3002057F2D02083B7F24
:100B0F00202008F87F2B2006F322920280CF286E38
:100B1F00756C6C2900D2011208003001F8C20178FF
:100B2F003D30D50108F60208A62D5043495812084A
:100B3F00002403B405004001E4900B389312082CF5
:0D0B4F00743A12082CD203753D0402098B84
:100BF600020CD3E493A3F8E493A34003F68001F236
:100C060008DFF48029E493A3F85407240CC8C333FF
:100C1600C4540F4420C8834004F456800146F6DFCE
:100C2600E4800B0102040810204080900DE6E47E6B
:100C3600019360BCA3FF543F30E509541FFEE493C3
:100C4600A360010ECF54C025E060A840B8E493A38A
:100C5600FAE493A3F8E493A3C8C582C8CAC583CAB5
:100C6600F0A3C8C582C8CAC583CADFE9DEE780BE6D
:010DF0000002
:100B5C00BB010689828A83E0225002E722BBFE0297
:090B6C00E32289828A83E49322CA
:100B7500BB010CE58229F582E5833AF583E0225035
:100B850006E92582F8E622BBFE06E92582F8E2227F
:0D0B9500E58229F582E5833AF583E4932299
:100BA200BB010689828A83F0225002F722BBFE0132
:020BB200F3222C
:100BB400FAE6FB0808E6F925F0F618E6CA3AF62242
:100BC400D083D082F8E4937012740193700DA3A3C0
:100BD40093F8740193F5828883E4737402936860D4
:060BE400EFA3A3A380DFD4
:100D8100EFB40A07740D120D8C740A309811A899EA
:100D9100B8130CC2983098FDA899C298B811F630D2
:070DA10099FDC299F59922AA
:00000001FF
